:10000000BFCB3DC0BFCB3BC0F2C239C038C037C048
:1000100036C035C034C033C032C031C030C0010238
:1000200004081020010101010101003800372D01F1
:10003000CB01100211241FBECFE5D2E0DEBFCDBF41
:1000400010E0A0E6B0E0ECE0FDE002C005900D920B
:10005000AE38B107D9F720E0AEE8B0E001C01D929C
:10006000A93AB207E1F710E0C4E3D0E003C0229759
:10007000FE01CDD3CE32D107D1F7A6D245C6C0CF2F
:10008000DC0112968D919C911397DC01ED91FC910E
:100090000280F381E02D099581E090E008958A3097
:1000A000910514F4C0960895C7960895CF93C82F6C
:1000B00060E280E990E0E4DF8C2F90E024E0969508
:1000C00087952A95E1F7EBDF682F80E990E0D8DF8C
:1000D0008C2F8F7090E0E3DF682F80E990E0CF9164
:1000E000CFCFCF93DF93EC013CE0959587953A9580
:1000F000E1F7D5DF682F80E990E0C2DF8D2F9927E7
:1001000087FD9A958F709927CADF682F80E990E064
:10011000B7DFCE0154E0959587955A95E1F78F703A
:100120009927BDDF682F80E990E0AADFCE018F70AC
:100130009927B5DF682F80E990E0DF91CF91A0CFBC
:100140000F931F93CF93DF93C0E0D0E0CE01C9DFC0
:1001500000E010E0FE01E00FF11F8491A7DF0F5FC8
:100160001F4F00311105B1F760966DE080E990E016
:1001700087DF6AE080E990E083DFC11580E2D8077D
:1001800029F7DF91CF911F910F91089561E081E0F0
:10019000D6D28AE990E09093930080939200E09108
:1001A0009A00F0919B000190F081E02D0994CF938B
:1001B000DF93CDB7DEB762970FB6F894DEBF0FBE00
:1001C000CDBF60918E0070918F004AE050E0CE016B
:1001D0000D9685D166E670E0CE0107963BD1BE0153
:1001E000635F7F4FCE010796B1D1BC01CE0101966E
:1001F00059D1BE016F5F7F4F80E990E0AED0898119
:100200009A81A1D38F8198859ED38D859E859BD31E
:1002100061E081E0CBD268EE73E080E090E052D202
:1002200060E081E0C3D268EE73E080E090E04AD203
:1002300080918E0090918F00019690938F00809313
:100240008E000A9709F47CDF62960FB6F894DEBF41
:100250000FBECDBFDF91CF91089580E990E091C0AE
:100260000F931F93CF93DF93EC018B01F801619102
:100270008F01662341F0E881F9810190F081E02D42
:10028000CE010995F3CFDF91CF911F910F91089582
:10029000EF92FF920F931F93CF93DF937C018A011C
:1002A000EB01060F171FC017D10751F06991D70155
:1002B000ED91FC910190F081E02DC7010995F3CFFC
:1002C000DF91CF911F910F91FF90EF900895DC0186
:1002D000ED91FC910190F081E02D642F0994CF9273
:1002E000DF92EF92FF920F931F93CF93DF938C01D6
:1002F0007B01C0E0D0E0D70114968D919C911597B9
:10030000C817D90770F4D801ED91FC91C080D18055
:10031000BE01C70152D1682FC801F6010995219687
:10032000EACFDF91CF911F910F91FF90EF90DF9077
:10033000CF900895CF93DF93EC014DE050E060E063
:1003400070E0C5DF4AE050E060E070E0CE01BFDF62
:1003500082E090E0DF91CF910895CF93DF93EC019D
:10036000BEDFCE01DF91CF91E5CF0895089580E003
:1003700090E008958FEF9FEF08958FEF9FEF08951E
:10038000089527E730E0FC013183208328E930E03D
:10039000338322830895E8E9F0E08FE690E09183CB
:1003A000808387E790E09093950080939400F0938A
:1003B0009700E09396000895BA9AC29A0895862FFE
:1003C000880F8E7162956F70606122E095E056E152
:1003D000F89407C0000000000000000000000000CA
:1003E0000000879510F0C29802C0C29A000057958D
:1003F00010F40000000036E04AE54A95F1F70000ED
:100400003A95D1F70000000000009A9519F7000016
:100410002A9521F095E0862F5BE1E3CF789408954B
:1004200089E890E090939B0080939A000895CF9381
:10043000DF93EC017B836A83CB010196ECD1998336
:100440008883892B21F41B821A821D821C82DF91F2
:10045000CF9108950F931F93CF93DF938C01EB01FE
:10046000209711F4CAE6D0E0FE0101900020E9F7E0
:10047000BF01615071096C1B7D0BF80175836483AA
:10048000C801D5DFF80180819181009731F0BE016C
:10049000DF91CF911F910F91BCC3DF91CF911F913D
:1004A0000F9108950F931F93CF93DF93EC018B016E
:1004B000FB01648175817D836C83B9DF88819981BB
:1004C000009741F0F80160817181DF91CF911F9118
:1004D0000F919FC3DF91CF911F910F910895EF92DC
:1004E000FF920F931F93CF93DF93CDB7DEB7A19702
:1004F0000FB6F894DEBF0FBECDBF7C01CB018E01DD
:100500000F5F1F4FB8018CD3F80101900020E9F76D
:10051000BF0161507109601B710BF7017583648322
:10052000C70185DFF70180819181009711F0B80143
:1005300070D3A1960FB6F894DEBF0FBECDBFDF918A
:10054000CF911F910F91FF90EF9008950F931F93FC
:10055000CF93DF93EC018B01FB01848195812C818A
:100560003D81820F931F9D838C832A813B812817B5
:100570003907B8F4BC016F5F7F4F8881998172D2CF
:100580002C813D81009729F0998388833B832A83BE
:1005900008C0F80184819581281B390B3D832C8389
:1005A00006C0F801608171818881998127D3CE01CD
:1005B000DF91CF911F910F910895DC01ED91FC9196
:1005C000E60FF71F80810895A1D0E0DDF0DDFECFBA
:1005D00083B7887F83BF8AB58C7F81608ABD83B7EC
:1005E000877F83BF83B7887F836083BF08957894B4
:1005F0001F920F920FB60F9211242F933F938F9358
:100600009F93AF93BF9380919D0090919E00A09186
:100610009F00B091A00030919C002CE7230F2D3754
:1006200028F02FEF230F0196A11DB11D20939C00F0
:1006300080939D0090939E00A0939F00B093A00094
:100640008091A1009091A200A091A300B091A4007C
:100650000196A11DB11D8093A1009093A200A093CB
:10066000A300B093A400BF91AF919F918F913F9150
:100670002F910F900FBE0F901F9018953FB7F894D1
:100680008091A1009091A200A091A300B091A4003C
:100690002FB508B602FE05C02F3F19F00196A11D27
:1006A000B11D3FBF6627782F892F9A2F620F711DCA
:1006B000811D911D42E0660F771F881F991F4A9583
:1006C000D1F70895CF92DF92EF92FF92CF93DF930D
:1006D0006B017C01D3DFEB01C114D104E104F1040F
:1006E00071F0CCDF6C1B7D0B683E7340A8F381E09A
:1006F000C81AD108E108F108C851DC4FEDCFDF91ED
:10070000CF91FF90EF90DF90CF900895789480B7CD
:10071000806880BF80B7806480BF8CB580648CBDEA
:100720008FEF8DBD80B7807F876080BF89B7846081
:1007300089BF4EDF86B1876086B9379A0895CF9317
:10074000DF9390E0FC01E25EFF4F2491FC01EC5D41
:10075000FF4F8491882339F190E0FC01E45DFF4F65
:10076000A491B0E0FC01E65DFF4F8491611106C0E9
:100770009FB7F8948C912095822313C0623069F45E
:10078000C82FD0E09FB7F8948C91322F30958323F7
:100790008C938881822B888305C09FB7F8948C91B5
:1007A000822B8C939FBFDF91CF910895A82FB0E04B
:1007B000FD01E25EFF4F9491FD01EC5DFF4FE4917E
:1007C000EE2311F1811103C08AB58F7304C081300B
:1007D00021F48AB58F7C8ABD05C0843019F48CB5AC
:1007E0008F7C8CBDF0E0E65DFF4FA491B0E02FB7A9
:1007F000611105C0F8948C919095892303C0F894F9
:100800008C91892B8C932FBF0895EE0FFF1F0590BD
:10081000F491E02D0994CF93DF938230910510F489
:1008200082E090E0E091A700F091A80020E030E0A5
:10083000A0E0B0E0309739F1408151814817590765
:10084000B8F04817590771F482819381109729F005
:1008500013969C938E9312972CC09093A80080932C
:10086000A70027C02115310531F04217530718F0B2
:10087000A901DB0101C0EF019A01BD01DF01028086
:10088000F381E02DD7CF21153105F9F0281B390B65
:100890002430310580F48A819B816115710521F036
:1008A000FB019383828304C09093A8008093A700E8
:1008B000FE01329644C0FE01E20FF31F8193919333
:1008C00022503109398328833AC02091A500309104
:1008D000A600232B41F420916200309163003093F5
:1008E000A6002093A50020916000309161002115A1
:1008F000310541F42DB73EB7409164005091650039
:10090000241B350BE091A500F091A600E217F30738
:10091000A0F42E1B3F0B2817390778F0AC014E5F6F
:100920005F4F2417350748F04E0F5F1F5093A60006
:100930004093A5008193919302C0E0E0F0E0CF01E5
:10094000DF91CF910895CF93DF93009709F487C08B
:10095000FC01329713821282C091A700D091A800A7
:10096000209781F420813181280F391F8091A500C3
:100970009091A6008217930779F5F093A600E09373
:10098000A5006DC0DE0120E030E0AE17BF0750F4D7
:1009900012964D915C9113979D014115510509F1F6
:1009A000DA01F3CFB383A28340815181840F951F75
:1009B0008A179B0771F48D919C911197840F951F55
:1009C00002969183808312968D919C9113979383C5
:1009D00082832115310529F4F093A800E093A70044
:1009E0003EC0D9011396FC93EE9312974D915D9101
:1009F000A40FB51FEA17FB0779F480819181840F5A
:100A0000951F0296D90111969C938E9382819381B2
:100A100013969C938E931297E0E0F0E08A819B817D
:100A2000009719F0FE01EC01F9CFCE010296288162
:100A30003981820F931F2091A5003091A6002817BD
:100A4000390769F4309729F41092A8001092A70092
:100A500002C013821282D093A600C093A500DF913A
:100A6000CF910895A0E0B0E0E7E3F5E01AC1EC0112
:100A7000CB01209711F4CFDEB4C0FE01E60FF71FC3
:100A80009E0122503109E217F30708F4A8C0D901EA
:100A90000D911C91119706171707B0F0053011053D
:100AA00008F49BC0A801445051094617570708F4A1
:100AB00094C002501109061B170B019311936D93FB
:100AC0007C93CF0140DF89C05B01A01AB10A4E01BF
:100AD000800E911EA091A700B091A800612C712CEE
:100AE00060E070E0109709F449C0A815B905C9F590
:100AF000ED90FC901197670142E0C40ED11CCA141E
:100B0000DB0478F147018A189B08640142E0C40EB7
:100B1000D11C1296BC9012971396AC91B5E0CB16EF
:100B2000D10440F0B282A38391828082D9018D9357
:100B30009C9309C00E5F1F4F0E0D1F1DF9011183FD
:100B40000083EB2DFA2F6115710531F0DB0113964F
:100B5000FC93EE93129741C0F093A800E093A70096
:100B60003CC06D917C9111976616770608F43B01A5
:100B7000BD0112960D90BC91A02DB4CF6091A5003F
:100B80007091A60068157905E9F468167906D0F425
:100B900040916000509161004115510541F44DB7FD
:100BA0005EB76091640070916500461B570BE417B7
:100BB000F507A8F4F093A600E093A500F90191834E
:100BC00080830BC028DE7C01009749F0A801BE019C
:100BD0000CD0CE01B8DEC70104C0CE0102C080E057
:100BE00090E0CDB7DEB7EEE078C0FB01DC0102C0DB
:100BF00001900D9241505040D8F70895FB01DC015F
:100C00000D900020E9F7119701900D920020E1F777
:100C10000895FB01DC0101900D920020E1F7089599
:100C20004532510518F4423008F004C0FB0110822F
:100C3000CB010895BB274A3031F4992322F4BDE259
:100C4000909581959F4F01C0BB27FB015527AA278F
:100C5000880F991FAA1FA41710F0A41B8395505149
:100C6000B9F7A05DAA3308F0A95DA193009779F7C1
:100C7000B111B1931192CB0100C0DC01FC01672FCF
:100C800071917723E1F7329704C07C916D93708363
:100C90006291AE17BF07C8F308952F923F924F920B
:100CA0005F926F927F928F929F92AF92BF92CF92FC
:100CB000DF92EF92FF920F931F93CF93DF93CDB705
:100CC000DEB7CA1BDB0B0FB6F894DEBF0FBECDBF7D
:100CD00009942A88398848885F846E847D848C844E
:100CE0009B84AA84B984C884DF80EE80FD800C8157
:100CF0001B81AA81B981CE0FD11D0FB6F894DEBF3A
:100D00000FBECDBFED010895F894FFCF0000A900FC
:100D10008000746573740000000000B501B6010026
:100D2000000000400030014801B701BD01BA01C018
:100D30000100000000DC01DF0100FFFFFFFFFFFFFB
:100D4000FFFFFFFFFFFFFFFFFFFFFFFFFFFFFFFFB3
:100D5000FFFFFFFFFFFFFFFFFFFFFFFFFFFFFFFFA3
:100D6000FFFFFFFFFFFFFFFFFFFFFFFFFFFFFFFF93
:100D7000FFFFFFFFFFFFFFFFFFFFFFFFFFFFFFFF83
:10177000FFFFFFFFFFFFFFFFFFFF46005BC47FC4CB
:1017800022C040C06CC03EC03DC03CC03BC03AC05F
:1017900039C038C037C036C035C034C033C0040388
:1017A000090412011001FF000008D01653070601BA
:1017B000000000010902120001010080320904004A
:1017C00000000000000011241FBECFE5D2E0DEBF04
:1017D000CDBF00EB0F9307E00F9310E0A0E6B0E061
:1017E000ECEDFFE102C005900D92A636B107D9F7E6
:1017F00010E0A6E6B0E001C01D92AC39B107E1F7F8
:10180000E7D1EAC3BDCFA82FB92F80E090E041E037
:1018100050EA609530E009C02D9182279795879511
:1018200010F084279527305EC8F36F5FA8F3089502
:10183000EADF8D939D930895A6E088279927AA95BE
:1018400069F00197E1F3B399FCCFB39BFECF81E040
:101850009927A6B3019611F0A871D9F70895CF93EF
:10186000CFB7CF93C0915F02C03B21F4C0915E021D
:10187000C73021F0CF91CFBFCF9181CFCC27C39577
:10188000B39BE9F7B39B0BC0B39B09C0B39B07C0E5
:10189000B39B05C0B39B03C0B39B01C0D3C00F92E1
:1018A000DF93C0917F00DD27CA57DF4F012EB39B26
:1018B00003C0DF910F90E6CF2F930F931F934F93A9
:1018C0002FEF4F6F06B303FB20F95F933F9350E078
:1018D0003BE065C016B30126502953FDC89556B3A9
:1018E000012703FB25F92F7306B3B1F0502710270A
:1018F00013FB26F906B22230F0F000C016B3012720
:1019000003FB27F90126502906B22430E8F54F776A
:10191000206816B30000F6CF50274F7D206206B234
:10192000102F000000C006B300265029102713FB1B
:1019300026F906B2E2CF4F7B06B3206400C0DACFAF
:1019400001265029187106B269F14E7F2160012FDE
:1019500016B328C0002650294D7F06B22260102FF2
:1019600029C0012650294B7F06B22460012F2DC0CB
:1019700016B301265029477F2860000006B22EC00A
:101980004F7E06B3206130C0422706B3499300263C
:101990005029102706B24FEF13FB20F9297F16B309
:1019A00079F2187159F10126502906B2012703FB7B
:1019B00021F9237F06B371F2002650293150D0F06F
:1019C00006B2102713FB22F9277E16B351F2012627
:1019D0005029012703FB06B223F92F7C49F20000AE
:1019E00006B3102713FB24F90026502906B22F79DD
:1019F00039F270CF10E21ABF002717C03B50319563
:101A0000C31BD04010E21ABF0881033CF9F00B342D
:101A1000E9F020917D001981110F1213EDCF0936E5
:101A200051F10D3211F0013E39F7009384003F91DE
:101A30005F914F911F910F912F91DF910F90CAB736
:101A4000C5FD1DCFCF91CFBFCF91189520918400B8
:101A5000222369F310918200112321F5343022F101
:101A60003093820020937E0010917F003BE0311B79
:101A700030937F0019C00091820001309CF40AE588
:101A80003091600034FD11C000936000C2E7D0E0E7
:101A900010C0052710E000C021C0052710E0C89540
:101AA00008BB14C03AE501C032ED032EC0E0D0E01F
:101AB00032E017B31861C39A08B317BB58E120E8A6
:101AC0004FEF20FF052708BB279517951C3F28F7E8
:101AD00000004552B0F720FF0527279508BB179552
:101AE0001C3FB8F629913A9561F7077E1091830063
:101AF000110F08BBC250D04011F010937D0010E2CE
:101B00001ABF086017B3177E402F477E54E05A95DE
:101B1000F1F708BB17BB48BB8ACF81E0809369000F
:101B2000F894E0917000F0917100329785E0809315
:101B30005700E89507B600FCFDCF789408959C0106
:101B4000E0917000F0917100309789F1E430F10577
:101B5000F1F087E1EC37F80739F420916C0030910F
:101B60006D002E5B3B4F15C087E1EE37F80739F467
:101B700020916E0030916F002D5B3B4F0AC087E1D2
:101B8000EA37F80731F481B7282F30E002C02FEB95
:101B90003BECF89481E0090180935700E89511240B
:101BA00078943296F0937100E0937000089581E18B
:101BB00080935700E895EBCF8FEF9FEFC0DF8091C8
:101BC0007000909171008F739070892BA9F7A5CF49
:101BD0001F93CF93DF9388E10FB6F89481BD11BCBA
:101BE0000FBEE0E0F0E0859194918F5B9B4C39F45F
:101BF000E4E0F0E0859194918F5B9B4C09F0DCDF91
:101C00001092710010927000AC9A8BB780628BBFFB
:101C1000BB9A88E893E1ECE9F1E03197F1F701979D
:101C2000D1F7BB98789410918200135017FDD4C05F
:101C300080917F00CCE0D0E0C81BD109CA57DF4FAC
:101C400080917E008D3209F091C0183009F0C2C039
:101C500083EC809372008AE58093600010926B00A1
:101C60002881822F80769981882329F1109267003C
:101C700010926600992341F482E690E090938100EF
:101C80008093800024E068C0913051F48C819D8164
:101C9000909371008093700027FD59C09FEF58C04A
:101CA00080916800923011F4816001C0846080935B
:101CB000680020E051C08A8110927B00992331F4A2
:101CC00010927C008BE790E022E03CC0953019F444
:101CD0008093830034C0963011F58B81813019F4E4
:101CE00082EA97E104C0823041F484EB97E190935B
:101CF00081008093800022E10EC0833059F48A81F4
:101D0000882341F48EE997E19093810080938000CD
:101D100024E001C020E080E480936B001DC0983077
:101D200019F485E890E009C0993019F48093850092
:101D300006C09A3021F48BE790E021E003C08BE7E6
:101D400090E020E0909381008093800005C09E8108
:101D500080E880936B0007C08F81882319F49E81EF
:101D6000921708F0922F9093610034C080916B001D
:101D700087FF30C08091700090917100009739F416
:101D80008881998190936D0080936C000DC08430A0
:101D9000910539F48881998190936F0080936E004A
:101DA00003C08058974138F488819981C8DE125069
:101DB00011F02296DFCF80917000909171008F73A7
:101DC0009070892B39F4809168008260809368005C
:101DD00010926100109282008091600084FF3CC0EC
:101DE000809161008F3FC1F1182F893008F018E011
:101DF000811B809361008091720098E8892780930D
:101E000072001123E1F0E0918000F0918100809157
:101E10006B0086FF09C0912FA3E7B0E084918D93FA
:101E200031969150D9F707C0912FA3E7B0E0819187
:101E30008D939150E1F7F0938100E093800083E768
:101E400090E0612FF5DC612F6C5F6C3019F08FEF43
:101E5000809361006093600094E186B3887131F4EF
:101E60009150D9F71092830010927D0010E09923D1
:101E700009F411E080916A00811739F0112319F4F7
:101E8000F8946BD0789410936A008CE991E00197F4
:101E9000F1F780916600909167000196909367003A
:101EA0008093660080916800182F80FF14C0F8941A
:101EB000E0E8F7E1E054F04083E080935700E895D4
:101EC00007B600FCFDCF3097A9F710927100109271
:101ED000700072DE789411FF0FC08AE390E20197E0
:101EE000F1F780917000909171008F739070892B41
:101EF00011F062DE01C011DE12FD0AC0109268000E
:101F000080916600909167008055934C08F48BCEC9
:101F100082E291EA0197F1F7F8941BBE15BA10928C
:101F20005F0210925E02EAE7F7E19491892F8150F7
:101F30008E3F20F00DC081B7815081BF81B79817C7
:101F4000D0F303C081B78F5F81BF81B78917D0F30A
:101F500015CCDF91CF911F910895FF920F931F939E
:101F6000CF93DF9380E8F82E00E0C0E0D0E0102FA0
:101F70001F0D11BF61DC29E0843392070CF0102F94
:101F8000F6942196C830D10511F0012FF0CF1150F1
:101F900011BF1F5F012FEC0110C04EDC845399402C
:101FA00097FF03C0909581959F4F8C179D0714F460
:101FB00001B7EC0181B78F5F81BF21B730E0812F7E
:101FC00090E001968217930744F701BFDF91CF910C
:101FD0001F910F91FF900895F894FFCF5AFF177C3F
:101FE0004008FFFFFFFFFFFFFFFFFFFFFFFFFFFFB7
:101FF000FFFFFFFFFFFFFFFFFFFFFFFFFFFFFFFFF1
:00000001FF
